{
  "contractName": "Constructor",
  "abi": [
    {
      "inputs": [
        {
          "internalType": "uint256",
          "name": "amount",
          "type": "uint256"
        }
      ],
      "stateMutability": "nonpayable",
      "type": "constructor"
    },
    {
      "inputs": [],
      "name": "onceAmount",
      "outputs": [
        {
          "internalType": "uint256",
          "name": "",
          "type": "uint256"
        }
      ],
      "stateMutability": "view",
      "type": "function"
    },
    {
      "inputs": [
        {
          "internalType": "uint256",
          "name": "amount",
          "type": "uint256"
        }
      ],
      "name": "setAmount",
      "outputs": [],
      "stateMutability": "nonpayable",
      "type": "function"
    }
  ],
  "bytecode": "0x6080604052620186a060005534801561001757600080fd5b506040516101273803806101278339810160408190526100369161003e565b600055610056565b60006020828403121561004f578081fd5b5051919050565b60c3806100646000396000f3fe6080604052348015600f57600080fd5b506004361060325760003560e01c8063271f88b4146037578063ff8dd6bf146048575b600080fd5b60466042366004606d565b6062565b005b604e6067565b604051605991906084565b60405180910390f35b600055565b60005481565b600060208284031215607d578081fd5b5035919050565b9081526020019056fea26469706673582212202567f9ede9fa9c4258482cb140407a6e8f15d9a712557c123bbf7df09d83a99564736f6c63430008000033",
  "immutableReferences": {},
  "source": "// SPDX-License-Identifier: GPL-3.0\npragma solidity ^0.8.0;\n\n\ncontract Constructor {\n\n    uint256 public onceAmount = 100000;\n    constructor(uint256 amount) {\n        onceAmount = amount;\n    }\n\n    function setAmount(uint256 amount) public {\n        onceAmount = amount;\n    }\n}",
  "sourcePath": "/data/work/dicegame/contracts/Constructor.sol",
  "compiler": {
    "name": "solc",
    "version": "0.8.0+commit.c7dfd78e.Emscripten.clang"
  },
  "schemaVersion": "3.3.3",
  "updatedAt": "2021-05-12T09:20:35.182Z",
  "devdoc": {
    "kind": "dev",
    "methods": {},
    "version": 1
  },
  "userdoc": {
    "kind": "user",
    "methods": {},
    "version": 1
  }
}