{
  "contractName": "HtdfFaucet",
  "abi": [
    {
      "inputs": [],
      "stateMutability": "payable",
      "type": "constructor"
    },
    {
      "anonymous": false,
      "inputs": [
        {
          "indexed": true,
          "internalType": "address",
          "name": "fromAddress",
          "type": "address"
        },
        {
          "indexed": true,
          "internalType": "uint256",
          "name": "amount",
          "type": "uint256"
        }
      ],
      "name": "Deposit",
      "type": "event"
    },
    {
      "anonymous": false,
      "inputs": [
        {
          "indexed": true,
          "internalType": "address",
          "name": "toAddress",
          "type": "address"
        },
        {
          "indexed": true,
          "internalType": "uint256",
          "name": "amount",
          "type": "uint256"
        }
      ],
      "name": "SendHtdf",
      "type": "event"
    },
    {
      "anonymous": false,
      "inputs": [
        {
          "indexed": true,
          "internalType": "address",
          "name": "fromAddress",
          "type": "address"
        },
        {
          "indexed": true,
          "internalType": "uint256",
          "name": "amount",
          "type": "uint256"
        }
      ],
      "name": "SetOnceAmount",
      "type": "event"
    },
    {
      "stateMutability": "payable",
      "type": "fallback"
    },
    {
      "inputs": [],
      "name": "onceAmount",
      "outputs": [
        {
          "internalType": "uint256",
          "name": "",
          "type": "uint256"
        }
      ],
      "stateMutability": "view",
      "type": "function"
    },
    {
      "inputs": [],
      "name": "owner",
      "outputs": [
        {
          "internalType": "address",
          "name": "",
          "type": "address"
        }
      ],
      "stateMutability": "view",
      "type": "function"
    },
    {
      "stateMutability": "payable",
      "type": "receive"
    },
    {
      "inputs": [
        {
          "internalType": "uint256",
          "name": "amount",
          "type": "uint256"
        }
      ],
      "name": "setOnceAmount",
      "outputs": [],
      "stateMutability": "nonpayable",
      "type": "function"
    },
    {
      "inputs": [],
      "name": "getOneHtdf",
      "outputs": [],
      "stateMutability": "nonpayable",
      "type": "function"
    },
    {
      "inputs": [],
      "name": "deposit",
      "outputs": [],
      "stateMutability": "payable",
      "type": "function"
    },
    {
      "inputs": [],
      "name": "kill",
      "outputs": [],
      "stateMutability": "nonpayable",
      "type": "function"
    }
  ],
  "bytecode": "0x60806040526305f5e100600055600180546001600160a01b031916331790556103678061002d6000396000f3fe6080604052600436106100595760003560e01c806341c0e1b5146100a55780638da5cb5b146100ba578063bb3ded46146100e5578063c15a96bb146100fa578063d0e30db01461011a578063ff8dd6bf1461012257610082565b36610082573415610080576040513490339060008051602061031283398151915290600090a35b005b3415610080576040513490339060008051602061031283398151915290600090a3005b3480156100b157600080fd5b50610080610144565b3480156100c657600080fd5b506100cf610169565b6040516100dc91906102d1565b60405180910390f35b3480156100f157600080fd5b50610080610178565b34801561010657600080fd5b506100806101153660046102b9565b61024c565b610080610296565b34801561012e57600080fd5b506101376102b3565b6040516100dc91906102e5565b6001546001600160a01b0316331461015b57600080fd5b6001546001600160a01b0316ff5b6001546001600160a01b031681565b3360009081526002602052604090205415806101c7575033600090815260026020526040902054158015906101c7575033600090815260026020526040902054603c906101c590426102ee565b115b6101d057600080fd5b6000544710156101df57600080fd5b336000818152600260205260408082204290558154905181156108fc0292818181858888f1935050505015801561021a573d6000803e3d6000fd5b5060008054604051909133917f5c73cf3606811df094e3c59bfbf3fd8fdf855b621938753f7604486280d4ca789190a3565b6001546001600160a01b0316331461026357600080fd5b6000818155604051829133917f242a21804f833c63c9cb0bec112566c96b004760f7733cc0e6daf72f4b27e7069190a350565b6040513490339060008051602061031283398151915290600090a3565b60005481565b6000602082840312156102ca578081fd5b5035919050565b6001600160a01b0391909116815260200190565b90815260200190565b60008282101561030c57634e487b7160e01b81526011600452602481fd5b50039056fee1fffcc4923d04b559f4d29a8bfc6cda04eb5b0d3c460751c2402c5c5cc9109ca26469706673582212203619db1e2f9c44da7a693dbedec99c6ee1ce2926d9bf19c2a7a03cd9e8c2f9c764736f6c63430008000033",
  "immutableReferences": {},
  "source": "// SPDX-License-Identifier: GPL-3.0\n// yqq 2020-12-11\n// test contract \n\n// upgrade to v0.8.0 , yqq,2021-05-11\npragma solidity ^0.8.0;\n\n\ncontract HtdfFaucet {\n    \n    uint256 public onceAmount;\n    address public owner ;\n    \n    event SendHtdf(address indexed toAddress, uint256 indexed amount);\n    event Deposit(address indexed fromAddress, uint256 indexed amount);\n    event SetOnceAmount(address indexed fromAddress, uint256 indexed amount);\n    mapping (address => uint256) sendRecords;\n    \n    constructor() payable {\n        onceAmount = 100000000; // once 1 HTDF\n        owner = msg.sender;\n    }\n    \n    modifier onlyOwner {\n        require(msg.sender == owner);\n        _;\n    }\n    \n    function setOnceAmount(uint256 amount) public onlyOwner {\n        onceAmount = amount;\n        emit SetOnceAmount(msg.sender, amount);\n    }\n    \n    function getOneHtdf() public {\n        require( sendRecords[msg.sender] == 0 || \n            (sendRecords[msg.sender] > 0 &&  block.timestamp - sendRecords[msg.sender] > 1 minutes ));\n            \n        require(address(this).balance >= onceAmount);\n\n        //  update time before transfer to against re-entrancy attack\n        sendRecords[msg.sender] = block.timestamp;\n\n        // transfer only use 2300 gas, safe against re-entrancy attack\n        payable(msg.sender).transfer( onceAmount );\n\n        emit SendHtdf(msg.sender, onceAmount);\n    }\n    \n    function deposit() public payable {\n        emit Deposit(msg.sender, msg.value);\n    }\n\n\n    // fallback fucnction\n    fallback() external payable {\n        if(msg.value > 0) {\n            emit Deposit(msg.sender, msg.value);\n        }\n    }\n\n    receive() external payable{\n        if(msg.value > 0) {\n            emit Deposit(msg.sender, msg.value);\n        }\n    }\n\n    // desctruct the contract, send all left coins to owner\n    function kill() public onlyOwner {\n         selfdestruct( payable(owner));\n    }\n    \n}",
  "sourcePath": "/data/work/dicegame/contracts/HtdfFaucet.sol",
  "compiler": {
    "name": "solc",
    "version": "0.8.0+commit.c7dfd78e.Emscripten.clang"
  },
  "schemaVersion": "3.3.3",
  "updatedAt": "2021-05-11T02:21:20.757Z",
  "devdoc": {
    "kind": "dev",
    "methods": {},
    "version": 1
  },
  "userdoc": {
    "kind": "user",
    "methods": {},
    "version": 1
  }
}